{
  "contractName": "BDSwapFarm",
  "abi": [
    {
      "inputs": [
        {
          "internalType": "contract BDSwapToken",
          "name": "_rewardToken",
          "type": "address"
        },
        {
          "internalType": "address",
          "name": "_devaddr",
          "type": "address"
        },
        {
          "internalType": "uint256",
          "name": "_rewardPerBlock",
          "type": "uint256"
        },
        {
          "internalType": "uint256",
          "name": "_startBlock",
          "type": "uint256"
        },
        {
          "internalType": "uint256",
          "name": "_testEndBlock",
          "type": "uint256"
        },
        {
          "internalType": "uint256",
          "name": "_bonusEndBlock",
          "type": "uint256"
        },
        {
          "internalType": "uint256",
          "name": "_allEndBlock",
          "type": "uint256"
        }
      ],
      "stateMutability": "nonpayable",
      "type": "constructor"
    },
    {
      "anonymous": false,
      "inputs": [
        {
          "indexed": true,
          "internalType": "address",
          "name": "user",
          "type": "address"
        },
        {
          "indexed": true,
          "internalType": "uint256",
          "name": "pid",
          "type": "uint256"
        },
        {
          "indexed": false,
          "internalType": "uint256",
          "name": "amount",
          "type": "uint256"
        }
      ],
      "name": "Deposit",
      "type": "event"
    },
    {
      "anonymous": false,
      "inputs": [
        {
          "indexed": true,
          "internalType": "address",
          "name": "user",
          "type": "address"
        },
        {
          "indexed": true,
          "internalType": "uint256",
          "name": "pid",
          "type": "uint256"
        },
        {
          "indexed": false,
          "internalType": "uint256",
          "name": "amount",
          "type": "uint256"
        }
      ],
      "name": "EmergencyWithdraw",
      "type": "event"
    },
    {
      "anonymous": false,
      "inputs": [
        {
          "indexed": true,
          "internalType": "address",
          "name": "previousOwner",
          "type": "address"
        },
        {
          "indexed": true,
          "internalType": "address",
          "name": "newOwner",
          "type": "address"
        }
      ],
      "name": "OwnershipTransferred",
      "type": "event"
    },
    {
      "anonymous": false,
      "inputs": [
        {
          "indexed": true,
          "internalType": "address",
          "name": "user",
          "type": "address"
        },
        {
          "indexed": true,
          "internalType": "uint256",
          "name": "pid",
          "type": "uint256"
        },
        {
          "indexed": false,
          "internalType": "uint256",
          "name": "amount",
          "type": "uint256"
        }
      ],
      "name": "Withdraw",
      "type": "event"
    },
    {
      "inputs": [],
      "name": "BONUS_MULTIPLIER",
      "outputs": [
        {
          "internalType": "uint256",
          "name": "",
          "type": "uint256"
        }
      ],
      "stateMutability": "view",
      "type": "function",
      "constant": true
    },
    {
      "inputs": [],
      "name": "allEndBlock",
      "outputs": [
        {
          "internalType": "uint256",
          "name": "",
          "type": "uint256"
        }
      ],
      "stateMutability": "view",
      "type": "function",
      "constant": true
    },
    {
      "inputs": [],
      "name": "bonusEndBlock",
      "outputs": [
        {
          "internalType": "uint256",
          "name": "",
          "type": "uint256"
        }
      ],
      "stateMutability": "view",
      "type": "function",
      "constant": true
    },
    {
      "inputs": [],
      "name": "devaddr",
      "outputs": [
        {
          "internalType": "address",
          "name": "",
          "type": "address"
        }
      ],
      "stateMutability": "view",
      "type": "function",
      "constant": true
    },
    {
      "inputs": [],
      "name": "owner",
      "outputs": [
        {
          "internalType": "address",
          "name": "",
          "type": "address"
        }
      ],
      "stateMutability": "view",
      "type": "function",
      "constant": true
    },
    {
      "inputs": [
        {
          "internalType": "uint256",
          "name": "",
          "type": "uint256"
        }
      ],
      "name": "poolInfo",
      "outputs": [
        {
          "internalType": "contract IERC20",
          "name": "lpToken",
          "type": "address"
        },
        {
          "internalType": "uint256",
          "name": "allocPoint",
          "type": "uint256"
        },
        {
          "internalType": "uint256",
          "name": "lastRewardBlock",
          "type": "uint256"
        },
        {
          "internalType": "uint256",
          "name": "accRewardPerShare",
          "type": "uint256"
        }
      ],
      "stateMutability": "view",
      "type": "function",
      "constant": true
    },
    {
      "inputs": [],
      "name": "renounceOwnership",
      "outputs": [],
      "stateMutability": "nonpayable",
      "type": "function"
    },
    {
      "inputs": [],
      "name": "rewardPerBlock",
      "outputs": [
        {
          "internalType": "uint256",
          "name": "",
          "type": "uint256"
        }
      ],
      "stateMutability": "view",
      "type": "function",
      "constant": true
    },
    {
      "inputs": [],
      "name": "rewardToken",
      "outputs": [
        {
          "internalType": "contract BDSwapToken",
          "name": "",
          "type": "address"
        }
      ],
      "stateMutability": "view",
      "type": "function",
      "constant": true
    },
    {
      "inputs": [],
      "name": "startBlock",
      "outputs": [
        {
          "internalType": "uint256",
          "name": "",
          "type": "uint256"
        }
      ],
      "stateMutability": "view",
      "type": "function",
      "constant": true
    },
    {
      "inputs": [],
      "name": "testEndBlock",
      "outputs": [
        {
          "internalType": "uint256",
          "name": "",
          "type": "uint256"
        }
      ],
      "stateMutability": "view",
      "type": "function",
      "constant": true
    },
    {
      "inputs": [],
      "name": "totalAllocPoint",
      "outputs": [
        {
          "internalType": "uint256",
          "name": "",
          "type": "uint256"
        }
      ],
      "stateMutability": "view",
      "type": "function",
      "constant": true
    },
    {
      "inputs": [
        {
          "internalType": "address",
          "name": "newOwner",
          "type": "address"
        }
      ],
      "name": "transferOwnership",
      "outputs": [],
      "stateMutability": "nonpayable",
      "type": "function"
    },
    {
      "inputs": [
        {
          "internalType": "uint256",
          "name": "",
          "type": "uint256"
        },
        {
          "internalType": "address",
          "name": "",
          "type": "address"
        }
      ],
      "name": "userInfo",
      "outputs": [
        {
          "internalType": "uint256",
          "name": "amount",
          "type": "uint256"
        },
        {
          "internalType": "uint256",
          "name": "rewardDebt",
          "type": "uint256"
        }
      ],
      "stateMutability": "view",
      "type": "function",
      "constant": true
    },
    {
      "inputs": [],
      "name": "poolLength",
      "outputs": [
        {
          "internalType": "uint256",
          "name": "",
          "type": "uint256"
        }
      ],
      "stateMutability": "view",
      "type": "function",
      "constant": true
    },
    {
      "inputs": [
        {
          "internalType": "uint256",
          "name": "_allocPoint",
          "type": "uint256"
        },
        {
          "internalType": "contract IERC20",
          "name": "_lpToken",
          "type": "address"
        },
        {
          "internalType": "bool",
          "name": "_withUpdate",
          "type": "bool"
        }
      ],
      "name": "add",
      "outputs": [],
      "stateMutability": "nonpayable",
      "type": "function"
    },
    {
      "inputs": [
        {
          "internalType": "uint256",
          "name": "_pid",
          "type": "uint256"
        },
        {
          "internalType": "uint256",
          "name": "_allocPoint",
          "type": "uint256"
        },
        {
          "internalType": "bool",
          "name": "_withUpdate",
          "type": "bool"
        }
      ],
      "name": "set",
      "outputs": [],
      "stateMutability": "nonpayable",
      "type": "function"
    },
    {
      "inputs": [
        {
          "internalType": "uint256",
          "name": "_from",
          "type": "uint256"
        },
        {
          "internalType": "uint256",
          "name": "_to",
          "type": "uint256"
        }
      ],
      "name": "getMultiplier",
      "outputs": [
        {
          "internalType": "uint256",
          "name": "",
          "type": "uint256"
        }
      ],
      "stateMutability": "view",
      "type": "function",
      "constant": true
    },
    {
      "inputs": [
        {
          "internalType": "uint256",
          "name": "_pid",
          "type": "uint256"
        },
        {
          "internalType": "address",
          "name": "_user",
          "type": "address"
        }
      ],
      "name": "pendingReward",
      "outputs": [
        {
          "internalType": "uint256",
          "name": "",
          "type": "uint256"
        }
      ],
      "stateMutability": "view",
      "type": "function",
      "constant": true
    },
    {
      "inputs": [],
      "name": "massUpdatePools",
      "outputs": [],
      "stateMutability": "nonpayable",
      "type": "function"
    },
    {
      "inputs": [
        {
          "internalType": "uint256",
          "name": "_pid",
          "type": "uint256"
        }
      ],
      "name": "updatePool",
      "outputs": [],
      "stateMutability": "nonpayable",
      "type": "function"
    },
    {
      "inputs": [
        {
          "internalType": "uint256",
          "name": "_pid",
          "type": "uint256"
        },
        {
          "internalType": "uint256",
          "name": "_amount",
          "type": "uint256"
        }
      ],
      "name": "deposit",
      "outputs": [],
      "stateMutability": "nonpayable",
      "type": "function"
    },
    {
      "inputs": [
        {
          "internalType": "uint256",
          "name": "_pid",
          "type": "uint256"
        },
        {
          "internalType": "uint256",
          "name": "_amount",
          "type": "uint256"
        }
      ],
      "name": "withdraw",
      "outputs": [],
      "stateMutability": "nonpayable",
      "type": "function"
    },
    {
      "inputs": [
        {
          "internalType": "uint256",
          "name": "_pid",
          "type": "uint256"
        }
      ],
      "name": "emergencyWithdraw",
      "outputs": [],
      "stateMutability": "nonpayable",
      "type": "function"
    },
    {
      "inputs": [
        {
          "internalType": "address",
          "name": "_devaddr",
          "type": "address"
        }
      ],
      "name": "dev",
      "outputs": [],
      "stateMutability": "nonpayable",
      "type": "function"
    }
  ],
  "bytecode": "0x6080604052600060095534801561001557600080fd5b50604051611a00380380611a00833981810160405260e081101561003857600080fd5b508051602082015160408301516060840151608085015160a086015160c0909601519495939492939192909190600061006f610103565b600080546001600160a01b0319166001600160a01b0383169081178255604051929350917f8be0079c531659141344cd1fd0a4f28419497f9722a3daafe3b4186f6b6457e0908290a350600180546001600160a01b039889166001600160a01b0319918216179091556002805497909816961695909517909555600692909255600a55600355600491909155600555610107565b3390565b6118ea806101166000396000f3fe608060405234801561001057600080fd5b50600436106101735760003560e01c806367e87bba116100de5780638dbb1e3a11610097578063d49e77cd11610071578063d49e77cd146103c3578063e2bbb158146103cb578063f2fde38b146103ee578063f7c618c11461041457610173565b80638dbb1e3a1461032f57806393f1a40b1461035257806398969e821461039757610173565b806367e87bba146102c5578063715018a6146102cd5780638aa28550146102d55780638ae39cac146102dd5780638d88a90e146102e55780638da5cb5b1461030b57610173565b8063441a3e7011610130578063441a3e701461022d57806348cd4cb11461025057806351eb05a6146102585780635312ea8e14610275578063630b5ba11461029257806364482f791461029a57610173565b8063081e3eda146101785780631526fe271461019257806317caf6f1146101df5780631aed6553146101e75780631eaaa045146101ef57806334e94d0a14610225575b600080fd5b61018061041c565b60408051918252519081900360200190f35b6101af600480360360208110156101a857600080fd5b5035610422565b604080516001600160a01b0390951685526020850193909352838301919091526060830152519081900360800190f35b610180610463565b610180610469565b6102236004803603606081101561020557600080fd5b508035906001600160a01b036020820135169060400135151561046f565b005b6101806105ea565b6102236004803603604081101561024357600080fd5b50803590602001356105f0565b6101806106f9565b6102236004803603602081101561026e57600080fd5b50356106ff565b6102236004803603602081101561028b57600080fd5b5035610926565b6102236109c2565b610223600480360360608110156102b057600080fd5b508035906020810135906040013515156109e5565b610180610ab6565b610223610abc565b610180610b5e565b610180610b63565b610223600480360360208110156102fb57600080fd5b50356001600160a01b0316610b69565b610313610be2565b604080516001600160a01b039092168252519081900360200190f35b6101806004803603604081101561034557600080fd5b5080359060200135610bf1565b61037e6004803603604081101561036857600080fd5b50803590602001356001600160a01b0316610d4f565b6040805192835260208301919091528051918290030190f35b610180600480360360408110156103ad57600080fd5b50803590602001356001600160a01b0316610d73565b610313610ed5565b610223600480360360408110156103e157600080fd5b5080359060200135610ee4565b6102236004803603602081101561040457600080fd5b50356001600160a01b0316610ff0565b6103136110e8565b60075490565b6007818154811061042f57fe5b600091825260209091206004909102018054600182015460028301546003909301546001600160a01b039092169350919084565b60095481565b60045481565b6104776110f7565b6000546001600160a01b039081169116146104c7576040805162461bcd60e51b8152602060048201819052602482015260008051602061186b833981519152604482015290519081900360640190fd5b80156104d5576104d56109c2565b6000600a5443116104e857600a546104ea565b435b6009549091506104fa90856110fb565b600955604080516080810182526001600160a01b0394851681526020810195865290810191825260006060820181815260078054600181018255925291517fa66cc928b5edb82af9bd49922954155ab7b0942694bea4ce44661d9a8736c688600490920291820180546001600160a01b031916919096161790945593517fa66cc928b5edb82af9bd49922954155ab7b0942694bea4ce44661d9a8736c689840155517fa66cc928b5edb82af9bd49922954155ab7b0942694bea4ce44661d9a8736c68a8301555090517fa66cc928b5edb82af9bd49922954155ab7b0942694bea4ce44661d9a8736c68b90910155565b60055481565b6000600783815481106105ff57fe5b60009182526020808320868452600882526040808520338652909252922060049091029091019150610630846106ff565b600061066a826001015461066464e8d4a5100061065e8760030154876000015461115c90919063ffffffff16565b906111b5565b906111f7565b825490915061067990856111f7565b80835560038401546106969164e8d4a510009161065e919061115c565b60018301556106a53382611239565b82546106bb906001600160a01b031633866113ca565b604080518581529051869133917ff279e6a1f5e320cca91135676d9cb6e44ca8a08c0b88342bcdb1144f6511b5689181900360200190a35050505050565b600a5481565b60006007828154811061070e57fe5b906000526020600020906004020190508060020154431161072f5750610923565b8054604080516370a0823160e01b815230600482015290516000926001600160a01b0316916370a08231916024808301926020929190829003018186803b15801561077957600080fd5b505afa15801561078d573d6000803e3d6000fd5b505050506040513d60208110156107a357600080fd5b50519050806107b9575043600290910155610923565b60006107c9836002015443610bf1565b905060006107f660095461065e86600101546107f06006548761115c90919063ffffffff16565b9061115c565b6001546002549192506001600160a01b03908116916340c10f19911661081d8460146111b5565b6040518363ffffffff1660e01b815260040180836001600160a01b0316815260200182815260200192505050600060405180830381600087803b15801561086357600080fd5b505af1158015610877573d6000803e3d6000fd5b5050600154604080516340c10f1960e01b81523060048201526024810186905290516001600160a01b0390921693506340c10f19925060448082019260009290919082900301818387803b1580156108ce57600080fd5b505af11580156108e2573d6000803e3d6000fd5b505050506109106109058461065e64e8d4a510008561115c90919063ffffffff16565b6003860154906110fb565b6003850155505043600290920191909155505b50565b60006007828154811061093557fe5b600091825260208083208584526008825260408085203380875293528420805485825560018201959095556004909302018054909450919291610985916001600160a01b039190911690836113ca565b604080518281529051859133917fbb757047c2b5f3974fe26b7c10f732e7bce710b0952a71082702781e62ae05959181900360200190a350505050565b60075460005b818110156109e1576109d9816106ff565b6001016109c8565b5050565b6109ed6110f7565b6000546001600160a01b03908116911614610a3d576040805162461bcd60e51b8152602060048201819052602482015260008051602061186b833981519152604482015290519081900360640190fd5b8015610a4b57610a4b6109c2565b610a8882610a8260078681548110610a5f57fe5b9060005260206000209060040201600101546009546111f790919063ffffffff16565b906110fb565b6009819055508160078481548110610a9c57fe5b906000526020600020906004020160010181905550505050565b60035481565b610ac46110f7565b6000546001600160a01b03908116911614610b14576040805162461bcd60e51b8152602060048201819052602482015260008051602061186b833981519152604482015290519081900360640190fd5b600080546040516001600160a01b03909116907f8be0079c531659141344cd1fd0a4f28419497f9722a3daafe3b4186f6b6457e0908390a3600080546001600160a01b0319169055565b600581565b60065481565b6002546001600160a01b03163314610bc0576040805162461bcd60e51b815260206004820152601560248201527453686f756c6420626520646576206164647265737360581b604482015290519081900360640190fd5b600280546001600160a01b0319166001600160a01b0392909216919091179055565b6000546001600160a01b031690565b60006005548310610c0457506000610d49565b60006005548310610c2057600554610c1d9084906111f7565b90505b6004548311158015610c3457506003548410155b15610c5057610c4860056107f085876111f7565b915050610d49565b60045484101580610c6357506003548311155b15610c7657610c488161066485876111f7565b6003548411158015610c8a57506004548310155b15610cd057610c4881610664610cc3610cb560056107f06003546004546111f790919063ffffffff16565b600454610a829089906111f7565b600354610a8290896111f7565b6003548411158015610ce457506004548311155b15610d1357610c48610d0660056107f0600354876111f790919063ffffffff16565b600354610a8290876111f7565b610c4881610664610d2f600454876111f790919063ffffffff16565b610a8260056107f08a6004546111f790919063ffffffff16565b92915050565b60086020908152600092835260408084209091529082529020805460019091015482565b60008060078481548110610d8357fe5b600091825260208083208784526008825260408085206001600160a01b03898116875290845281862060049586029093016003810154815484516370a0823160e01b81523098810198909852935191985093969395939492909116926370a08231926024808301939192829003018186803b158015610e0157600080fd5b505afa158015610e15573d6000803e3d6000fd5b505050506040513d6020811015610e2b57600080fd5b5051600285015490915043118015610e4257508015155b15610ea2576000610e57856002015443610bf1565b90506000610e7e60095461065e88600101546107f06006548761115c90919063ffffffff16565b9050610e9d610e968461065e8464e8d4a5100061115c565b85906110fb565b935050505b610eca836001015461066464e8d4a5100061065e86886000015461115c90919063ffffffff16565b979650505050505050565b6002546001600160a01b031681565b600060078381548110610ef357fe5b60009182526020808320868452600882526040808520338652909252922060049091029091019150610f24846106ff565b805415610f67576000610f59826001015461066464e8d4a5100061065e8760030154876000015461115c90919063ffffffff16565b9050610f653382611239565b505b8215610f93578154610f84906001600160a01b031633308661141c565b8054610f9090846110fb565b81555b60038201548154610fae9164e8d4a510009161065e9161115c565b6001820155604080518481529051859133917f90890809c654f11d6e72a28fa60149770a0d11ec6c92319d6ceb2bb0a4ea1a159181900360200190a350505050565b610ff86110f7565b6000546001600160a01b03908116911614611048576040805162461bcd60e51b8152602060048201819052602482015260008051602061186b833981519152604482015290519081900360640190fd5b6001600160a01b03811661108d5760405162461bcd60e51b81526004018080602001828103825260268152602001806117fe6026913960400191505060405180910390fd5b600080546040516001600160a01b03808516939216917f8be0079c531659141344cd1fd0a4f28419497f9722a3daafe3b4186f6b6457e091a3600080546001600160a01b0319166001600160a01b0392909216919091179055565b6001546001600160a01b031681565b3390565b600082820183811015611155576040805162461bcd60e51b815260206004820152601b60248201527f536166654d6174683a206164646974696f6e206f766572666c6f770000000000604482015290519081900360640190fd5b9392505050565b60008261116b57506000610d49565b8282028284828161117857fe5b04146111555760405162461bcd60e51b815260040180806020018281038252602181526020018061184a6021913960400191505060405180910390fd5b600061115583836040518060400160405280601a81526020017f536166654d6174683a206469766973696f6e206279207a65726f00000000000081525061147c565b600061115583836040518060400160405280601e81526020017f536166654d6174683a207375627472616374696f6e206f766572666c6f77000081525061151e565b600154604080516370a0823160e01b815230600482015290516000926001600160a01b0316916370a08231916024808301926020929190829003018186803b15801561128457600080fd5b505afa158015611298573d6000803e3d6000fd5b505050506040513d60208110156112ae57600080fd5b5051905080821115611342576001546040805163a9059cbb60e01b81526001600160a01b038681166004830152602482018590529151919092169163a9059cbb9160448083019260209291908290030181600087803b15801561131057600080fd5b505af1158015611324573d6000803e3d6000fd5b505050506040513d602081101561133a57600080fd5b506113c59050565b6001546040805163a9059cbb60e01b81526001600160a01b038681166004830152602482018690529151919092169163a9059cbb9160448083019260209291908290030181600087803b15801561139857600080fd5b505af11580156113ac573d6000803e3d6000fd5b505050506040513d60208110156113c257600080fd5b50505b505050565b604080516001600160a01b038416602482015260448082018490528251808303909101815260649091019091526020810180516001600160e01b031663a9059cbb60e01b1790526113c5908490611578565b604080516001600160a01b0380861660248301528416604482015260648082018490528251808303909101815260849091019091526020810180516001600160e01b03166323b872dd60e01b179052611476908590611578565b50505050565b600081836115085760405162461bcd60e51b81526004018080602001828103825283818151815260200191508051906020019080838360005b838110156114cd5781810151838201526020016114b5565b50505050905090810190601f1680156114fa5780820380516001836020036101000a031916815260200191505b509250505060405180910390fd5b50600083858161151457fe5b0495945050505050565b600081848411156115705760405162461bcd60e51b81526020600482018181528351602484015283519092839260449091019190850190808383600083156114cd5781810151838201526020016114b5565b505050900390565b60606115cd826040518060400160405280602081526020017f5361666545524332303a206c6f772d6c6576656c2063616c6c206661696c6564815250856001600160a01b03166116299092919063ffffffff16565b8051909150156113c5578080602001905160208110156115ec57600080fd5b50516113c55760405162461bcd60e51b815260040180806020018281038252602a81526020018061188b602a913960400191505060405180910390fd5b60606116388484600085611640565b949350505050565b6060824710156116815760405162461bcd60e51b81526004018080602001828103825260268152602001806118246026913960400191505060405180910390fd5b61168a85611791565b6116db576040805162461bcd60e51b815260206004820152601d60248201527f416464726573733a2063616c6c20746f206e6f6e2d636f6e7472616374000000604482015290519081900360640190fd5b60006060866001600160a01b031685876040518082805190602001908083835b6020831061171a5780518252601f1990920191602091820191016116fb565b6001836020036101000a03801982511681845116808217855250505050505090500191505060006040518083038185875af1925050503d806000811461177c576040519150601f19603f3d011682016040523d82523d6000602084013e611781565b606091505b5091509150610eca828286611797565b3b151590565b606083156117a6575081611155565b8251156117b65782518084602001fd5b60405162461bcd60e51b81526020600482018181528451602484015284518593919283926044019190850190808383600083156114cd5781810151838201526020016114b556fe4f776e61626c653a206e6577206f776e657220697320746865207a65726f2061646472657373416464726573733a20696e73756666696369656e742062616c616e636520666f722063616c6c536166654d6174683a206d756c7469706c69636174696f6e206f766572666c6f774f776e61626c653a2063616c6c6572206973206e6f7420746865206f776e65725361666545524332303a204552433230206f7065726174696f6e20646964206e6f742073756363656564a2646970667358221220cdeba219a095194bcac6e3c4a4e2d82444ecc1d65c126e40710dcc59b92f5d3164736f6c634300060c0033",
  "immutableReferences": {},
  "source": "pragma solidity 0.6.12;\n\n\nimport \"@openzeppelin/contracts/token/ERC20/IERC20.sol\";\nimport \"@openzeppelin/contracts/token/ERC20/SafeERC20.sol\";\nimport \"@openzeppelin/contracts/utils/EnumerableSet.sol\";\nimport \"@openzeppelin/contracts/math/SafeMath.sol\";\nimport \"@openzeppelin/contracts/access/Ownable.sol\";\nimport \"./BDSwapToken.sol\";\n\n\n\n// BDSwapFarm is the master of BDS. He can make BDS and he is a fair guy.\n//\n// Note that it's ownable and the owner wields tremendous power. The ownership\n// will be transferred to a governance smart contract once BDS is sufficiently\n// distributed and the community can show to govern itself.\n//\n// Have fun reading it. Hopefully it's bug-free. God bless.\ncontract BDSwapFarm is Ownable {\n    using SafeMath for uint256;\n    using SafeERC20 for IERC20;\n\n    // Info of each user.\n    struct UserInfo {\n        uint256 amount;     // How many LP tokens the user has provided.\n        uint256 rewardDebt; // Reward debt. See explanation below.\n        //\n        // We do some fancy math here. Basically, any point in time, the amount of WASPs\n        // entitled to a user but is pending to be distributed is:\n        //\n        //   pending reward = (user.amount * pool.accRewardPerShare) - user.rewardDebt\n        //\n        // Whenever a user deposits or withdraws LP tokens to a pool. Here's what happens:\n        //   1. The pool's `accRewardPerShare` (and `lastRewardBlock`) gets updated.\n        //   2. User receives the pending reward sent to his/her address.\n        //   3. User's `amount` gets updated.\n        //   4. User's `rewardDebt` gets updated.\n    }\n\n    // Info of each pool.\n    struct PoolInfo {\n        IERC20 lpToken;           // Address of LP token contract.\n        uint256 allocPoint;       // How many allocation points assigned to this pool. WASPs to distribute per block.\n        uint256 lastRewardBlock;  // Last block number that WASPs distribution occurs.\n        uint256 accRewardPerShare;  // Accumulated WASPs per share, times 1e12. See below.\n    }\n\n    // The BDS TOKEN!\n    BDSwapToken public rewardToken;\n    // Dev address.\n    address public devaddr;\n    // Block number when test BDS period ends.\n    uint256 public testEndBlock;\n    // Block number when bonus BDS period ends.\n    uint256 public bonusEndBlock;\n    // Block number when bonus BDS period ends.\n    uint256 public allEndBlock;\n    // BDS tokens created per block.\n    uint256 public rewardPerBlock;\n    // Bonus muliplier for early rewardToken makers.\n    uint256 public constant BONUS_MULTIPLIER = 5;\n\n    // Info of each pool.\n    PoolInfo[] public poolInfo;\n    // Info of each user that stakes LP tokens.\n    mapping (uint256 => mapping (address => UserInfo)) public userInfo;\n    // Total allocation poitns. Must be the sum of all allocation points in all pools.\n    uint256 public totalAllocPoint = 0;\n    // The block number when BDS mining starts.\n    uint256 public startBlock;\n\n    event Deposit(address indexed user, uint256 indexed pid, uint256 amount);\n    event Withdraw(address indexed user, uint256 indexed pid, uint256 amount);\n    event EmergencyWithdraw(address indexed user, uint256 indexed pid, uint256 amount);\n\n    constructor(\n        BDSwapToken _rewardToken,\n        address _devaddr,\n        uint256 _rewardPerBlock,\n        uint256 _startBlock,\n        uint256 _testEndBlock,\n        uint256 _bonusEndBlock,\n        uint256 _allEndBlock\n    ) public {\n        rewardToken = _rewardToken;\n        devaddr = _devaddr;\n        rewardPerBlock = _rewardPerBlock;\n        startBlock = _startBlock;\n        testEndBlock = _testEndBlock;\n        bonusEndBlock = _bonusEndBlock;\n        allEndBlock = _allEndBlock;\n    }\n\n    function poolLength() external view returns (uint256) {\n        return poolInfo.length;\n    }\n\n    // Add a new lp to the pool. Can only be called by the owner.\n    // XXX DO NOT add the same LP token more than once. Rewards will be messed up if you do.\n    function add(uint256 _allocPoint, IERC20 _lpToken, bool _withUpdate) public onlyOwner {\n        if (_withUpdate) {\n            massUpdatePools();\n        }\n        uint256 lastRewardBlock = block.number > startBlock ? block.number : startBlock;\n        totalAllocPoint = totalAllocPoint.add(_allocPoint);\n        poolInfo.push(PoolInfo({\n            lpToken: _lpToken,\n            allocPoint: _allocPoint,\n            lastRewardBlock: lastRewardBlock,\n            accRewardPerShare: 0\n        }));\n    }\n\n    // Update the given pool's BDS allocation point. Can only be called by the owner.\n    function set(uint256 _pid, uint256 _allocPoint, bool _withUpdate) public onlyOwner {\n        if (_withUpdate) {\n            massUpdatePools();\n        }\n        totalAllocPoint = totalAllocPoint.sub(poolInfo[_pid].allocPoint).add(_allocPoint);\n        poolInfo[_pid].allocPoint = _allocPoint;\n    }\n\n    // Return reward multiplier over the given _from to _to block.\n    function getMultiplier(uint256 _from, uint256 _to) public view returns (uint256) {\n        if (_from >= allEndBlock) {\n            return 0;\n        }\n\n        uint256 noRewardCount = 0;\n        if (_to >= allEndBlock) {\n            noRewardCount = _to.sub(allEndBlock);\n        }\n\n        if (_to <= bonusEndBlock && _from >= testEndBlock) {\n            return _to.sub(_from).mul(BONUS_MULTIPLIER);\n        }\n\n        if (_from >= bonusEndBlock || _to <= testEndBlock) {\n            return _to.sub(_from).sub(noRewardCount);\n        }\n\n        if (_from <= testEndBlock && _to >= bonusEndBlock) {\n            return testEndBlock.sub(_from).add(\n                _to.sub(bonusEndBlock).add(\n                    bonusEndBlock.sub(testEndBlock).mul(BONUS_MULTIPLIER)\n                )\n            ).sub(noRewardCount);\n        }\n\n        if (_from <= testEndBlock && _to <= bonusEndBlock) {\n            return testEndBlock.sub(_from).add(\n                _to.sub(testEndBlock).mul(BONUS_MULTIPLIER)\n            );\n        } else { //(_from <= bonusEndBlock && _to >= bonusEndBlock)\n            return bonusEndBlock.sub(_from).mul(BONUS_MULTIPLIER).add(\n                _to.sub(bonusEndBlock)\n            ).sub(noRewardCount);\n        }\n    }\n\n    // View function to see pending reward on frontend.\n    function pendingReward(uint256 _pid, address _user) external view returns (uint256) {\n        PoolInfo storage pool = poolInfo[_pid];\n        UserInfo storage user = userInfo[_pid][_user];\n        uint256 accRewardPerShare = pool.accRewardPerShare;\n        uint256 lpSupply = pool.lpToken.balanceOf(address(this));\n        if (block.number > pool.lastRewardBlock && lpSupply != 0) {\n            uint256 multiplier = getMultiplier(pool.lastRewardBlock, block.number);\n            uint256 reward = multiplier.mul(rewardPerBlock).mul(pool.allocPoint).div(totalAllocPoint);\n            accRewardPerShare = accRewardPerShare.add(reward.mul(1e12).div(lpSupply));\n        }\n        return user.amount.mul(accRewardPerShare).div(1e12).sub(user.rewardDebt);\n    }\n\n    // Update reward vairables for all pools. Be careful of gas spending!\n    function massUpdatePools() public {\n        uint256 length = poolInfo.length;\n        for (uint256 pid = 0; pid < length; ++pid) {\n            updatePool(pid);\n        }\n    }\n\n    // Update reward variables of the given pool to be up-to-date.\n    function updatePool(uint256 _pid) public {\n        PoolInfo storage pool = poolInfo[_pid];\n        if (block.number <= pool.lastRewardBlock) {\n            return;\n        }\n        uint256 lpSupply = pool.lpToken.balanceOf(address(this));\n        if (lpSupply == 0) {\n            pool.lastRewardBlock = block.number;\n            return;\n        }\n        uint256 multiplier = getMultiplier(pool.lastRewardBlock, block.number);\n        uint256 reward = multiplier.mul(rewardPerBlock).mul(pool.allocPoint).div(totalAllocPoint);\n        rewardToken.mint(devaddr, reward.div(20));\n        rewardToken.mint(address(this), reward);\n        pool.accRewardPerShare = pool.accRewardPerShare.add(reward.mul(1e12).div(lpSupply));\n        pool.lastRewardBlock = block.number;\n    }\n\n    // Deposit LP tokens to BDSwapFarm for BDS allocation.\n    function deposit(uint256 _pid, uint256 _amount) public {\n        PoolInfo storage pool = poolInfo[_pid];\n        UserInfo storage user = userInfo[_pid][msg.sender];\n        updatePool(_pid);\n        if (user.amount > 0) {\n            uint256 pending = user.amount.mul(pool.accRewardPerShare).div(1e12).sub(user.rewardDebt);\n            safeWaspTransfer(msg.sender, pending);\n        }\n        if(_amount > 0) {\n            pool.lpToken.safeTransferFrom(address(msg.sender), address(this), _amount);\n            user.amount = user.amount.add(_amount);\n        }\n        user.rewardDebt = user.amount.mul(pool.accRewardPerShare).div(1e12);\n        emit Deposit(msg.sender, _pid, _amount);\n    }\n\n    // Withdraw LP tokens from BDSwapFarm.\n    function withdraw(uint256 _pid, uint256 _amount) public {\n        PoolInfo storage pool = poolInfo[_pid];\n        UserInfo storage user = userInfo[_pid][msg.sender];\n        updatePool(_pid);\n        uint256 pending = user.amount.mul(pool.accRewardPerShare).div(1e12).sub(user.rewardDebt);\n        user.amount = user.amount.sub(_amount);\n        user.rewardDebt = user.amount.mul(pool.accRewardPerShare).div(1e12);\n        safeWaspTransfer(msg.sender, pending);\n        pool.lpToken.safeTransfer(address(msg.sender), _amount);\n        emit Withdraw(msg.sender, _pid, _amount);\n    }\n\n    // Withdraw without caring about rewards. EMERGENCY ONLY.\n    function emergencyWithdraw(uint256 _pid) public {\n        PoolInfo storage pool = poolInfo[_pid];\n        UserInfo storage user = userInfo[_pid][msg.sender];\n        uint256 amount = user.amount;\n        user.amount = 0;\n        user.rewardDebt = 0;\n        pool.lpToken.safeTransfer(address(msg.sender), amount);\n        emit EmergencyWithdraw(msg.sender, _pid, amount);\n    }\n\n    // Safe rewardToken transfer function, just in case if rounding error causes pool to not have enough WASPs.\n    function safeWaspTransfer(address _to, uint256 _amount) internal {\n        uint256 waspBal = rewardToken.balanceOf(address(this));\n        if (_amount > waspBal) {\n            rewardToken.transfer(_to, waspBal);\n        } else {\n            rewardToken.transfer(_to, _amount);\n        }\n    }\n\n    // Update dev address by the previous dev.\n    function dev(address _devaddr) public {\n        require(msg.sender == devaddr, \"Should be dev address\");\n        devaddr = _devaddr;\n    }\n}\n",
  "sourcePath": "/Users/molin/workspace/dapp/bankdefi/bdswap-farm/contracts/BDSwapFarm.sol",
  "compiler": {
    "name": "solc",
    "version": "0.6.12+commit.27d51765.Emscripten.clang"
  },
  "schemaVersion": "3.1.0",
  "updatedAt": "2021-01-07T09:28:28.643Z",
  "networkType": "ethereum",
  "devdoc": {
    "kind": "dev",
    "methods": {
      "owner()": {
        "details": "Returns the address of the current owner."
      },
      "renounceOwnership()": {
        "details": "Leaves the contract without owner. It will not be possible to call `onlyOwner` functions anymore. Can only be called by the current owner. NOTE: Renouncing ownership will leave the contract without an owner, thereby removing any functionality that is only available to the owner."
      },
      "transferOwnership(address)": {
        "details": "Transfers ownership of the contract to a new account (`newOwner`). Can only be called by the current owner."
      }
    },
    "version": 1
  },
  "userdoc": {
    "kind": "user",
    "methods": {},
    "version": 1
  }
}